:020000040800F2
:100000001808002089010008E5010008E501000842
:10001000E5010008E5010008E50100080000000016
:10002000000000000000000000000000E5010008E2
:10003000E501000800000000E5010008E5010008F6
:10004000E5010008E5010008E5010008E5010008F8
:10005000E5010008E5010008E5010008E5010008E8
:10006000E5010008E5010008E5010008E5010008D8
:10007000E5010008E5010008E5010008E5010008C8
:10008000E5010008E5010008E5010008E5010008B8
:10009000E5010008E5010008E5010008E5010008A8
:1000A000E5010008E5010008E5010008E501000898
:1000B000E5010008E5010008E5010008E501000888
:1000C000E5010008E5010008E5010008E501000878
:1000D000E5010008E5010008E5010008E501000868
:1000E000E5010008E5010008E5010008E501000858
:1000F000E5010008E5010008E5010008E501000848
:10010000E5010008E5010008E5010008E501000837
:10011000E5010008E5010008E5010008E501000827
:10012000E5010008E5010008E5010008E501000817
:10013000E5010008E5010008E5010008E501000807
:10014000E5010008E5010008E5010008E5010008F7
:10015000E5010008E5010008E5010008E5010008E7
:10016000E5010008E5010008E5010008E5010008D7
:10017000E5010008E5010008E5010008E5010008C7
:10018000E5010008E501000880B582B000AF104B22
:100190007B60104B3B6007E03B681A1D3A607A6851
:1001A000111D796012681A603A680B4B9A42F3D3BA
:1001B0000A480B494FF000028842B8BF40F8042BB0
:1001C000FFF6FAAF00F05EF80837BD4680BD00BF0D
:1001D000E40C00080000002014000020140000209F
:1001E0001400002080B400AFFEE700BF80B483B0ED
:1001F00000AF03463960FB7197F90730002B0BDA2B
:100200000D49FB7903F00F03043B3A68D2B21201A7
:10021000D2B20B441A7609E0084997F907303A68D8
:10022000D2B21201D2B20B4483F800230C37BD4680
:100230005DF8047B704700BF00ED00E000E100E0E6
:1002400080B582B000AF78607B68B3F1807F01D366
:10025000012311E00A4B7A6822F07F42013A5A608A
:100260004FF0FF300F21FFF7C1FF054B00229A60CE
:10027000034B07221A60002318460837BD4680BD8D
:1002800010E000E080B596B000AF00F023FA824B9A
:100290001A68824BA3FB02139B091846FFF7D0FF95
:1002A0000120012100F024F90023A7F84C3000239D
:1002B000A7F84E304FF4FA633B650023A7F854309B
:1002C000002387F8563007F14C037548194600F0B3
:1002D000A7FA0120012100F0EDF84FF4A0637B6440
:1002E000022387F84830002387F84A30032387F831
:1002F0004930002387F84B3007F144036948194619
:1003000000F014F91020012100F0D4F84FF400633C
:10031000FB63022387F84030002387F84230032331
:1003200087F84130002387F8433007F13C035E48EB
:10033000194600F0FBF85B480821012200F084F91F
:1003400059480B21012200F07FF956480A21012269
:1003500000F07AF970233B8501237B854FF4C87345
:100360003B630023BB864FF480733B8707F1280370
:100370004B48194600F0DEFA07F1280348481946B1
:1003800000F052FB07F128034548194600F0D4FB62
:100390004348012100F0AEFA4148012100F07CFC05
:1003A0003F480021012200F04DFC3D48042101227C
:1003B00000F048FC3A480821012200F043FC0220EA
:1003C000012100F095F80023BB830023FB834FF449
:1003D000FA633B620023BB84002387F8263007F1D1
:1003E0001C033248194600F01BFA0420012100F0DA
:1003F00061F84FF4E0737B6102233B760023BB7608
:1004000003237B760023FB7607F114032848194663
:1004100000F08CF826480621032200F015F9244844
:100420000721032200F010F921480821032200F0DF
:100430000BF970233B8001237B804FF4C873BB60B2
:100440000023BB814FF480733B823B46174819461B
:1004500000F070FA3B461548194600F0E5FA3B46B5
:100460001248194600F068FB1048012100F042FADA
:100470000E48012100F010FC0C480021012200F080
:10048000E1FB0A480421012200F0DCFB07480821B7
:10049000012200F0D7FB03E700000020D34D6210DB
:1004A0000000014000000240001002400004014032
:1004B0000008024080B483B000AF78600B46FB7048
:1004C000FB78002B06D0094B084A116B7A680A4367
:1004D0001A6306E0054B054A116B7A68D2430A405D
:1004E0001A630C37BD465DF8047B70470038024044
:1004F00080B483B000AF78600B46FB70FB78002BB4
:1005000006D0094B084A516C7A680A435A6406E0DF
:10051000054B054A516C7A68D2430A405A640C373D
:10052000BD465DF8047B70470038024080B487B058
:1005300000AF7860396000237B6100233B610023BA
:10054000FB6000237B6176E07B69012202FA03F302
:100550003B613B681A683B691340FB60FA683B6982
:100560009A4265D17B681A687B695B00032101FAB6
:1005700003F3DB431A407B681A607B681A683B68A8
:100580001B7919467B695B0001FA03F31A437B6808
:100590001A603B681B79012B03D03B681B79022B47
:1005A0002ED17B689A687B695B00032101FA03F313
:1005B000DB431A407B689A607B689A683B685B798A
:1005C00019467B695B0001FA03F31A437B689A6062
:1005D0007B685A687B699BB2012101FA03F3DB4314
:1005E0001A407B685A607B685A683B689B79194659
:1005F0007B699BB201FA03F39BB21A437B685A6092
:100600007B68DA687B699BB25B00032101FA03F324
:10061000DB431A407B68DA607B68DA683B68DB7929
:1006200019467B695B0001FA03F31A437B68DA60C1
:100630007B6901337B617B690F2B85D91C37BD46F4
:100640005DF8047B704700BF80B485B000AF786070
:1006500013460A467A807B700023FB600023BB6050
:100660007A787B8803F007039B0002FA03F3FB60B0
:100670007B88DB089BB21A467B88DB089BB2194655
:100680007B68083153F821107B8803F007039B0037
:100690000F2000FA03F3DB4319407B68083243F86C
:1006A00022107B88DB089BB21A467B68083253F81D
:1006B0002220FB681343BB607B88DB089BB21A4691
:1006C0007B680832B96843F822101437BD465DF8DC
:1006D000047B704780B500AF114B114A126842F09D
:1006E00001021A600E4B00229A600D4A0C4B1B68E7
:1006F00023F0847323F480331360094B094A5A6052
:10070000074B074A126822F480221A60044B002229
:10071000DA6000F00BF8044B4FF000629A6080BD85
:10072000003802401030002400ED00E080B483B0B7
:1007300000AF00237B6000233B60354B344A1268D6
:1007400042F480321A60324B1B6803F400333B6082
:100750007B6801337B603B68002B03D17B68B3F57A
:10076000A06FF0D12A4B1B6803F40033002B02D09A
:1007700001233B6001E000233B603B68012B42D139
:10078000234B234A126C42F080521A64214B214AB7
:10079000126842F480421A601D4B1D4A92689A60AA
:1007A0001B4B1B4A926842F400429A60184B184A4D
:1007B000926842F4A0529A60154B174A5A60144B43
:1007C000134A126842F080721A6000BF104B1B6817
:1007D00003F00073002BF9D0104B40F205621A6051
:1007E0000B4B0B4A926822F003029A60084B084AAE
:1007F000926842F002029A6000BF054B9B6803F0CA
:100800000C03082BF9D10C37BD465DF8047B70470B
:10081000003802400070004020544007003C024075
:1008200080B485B000AF786039600023FB817B68BD
:100830001B88FB817A68284B9A4213D07A68274B31
:100840009A420FD07B68B3F1804F0BD07A68244B6B
:100850009A4207D07A68234B9A4203D07A68224B97
:100860009A4208D1FB8923F07003FB813B685A88C8
:10087000FB891343FB817A681C4B9A420CD07A683F
:100880001B4B9A4208D0FB8923F44073FB813B68E1
:100890001A89FB891343FB817B68FA891A803B68BC
:1008A0005A687B68DA623B681A887B681A857A68BE
:1008B000094B9A4203D07A68084B9A4204D13B68AC
:1008C0009B7A1A467B681A867B6801229A821437C3
:1008D000BD465DF8047B7047000001400004014004
:1008E0000004004000080040000C004000100040E0
:1008F0000014004080B483B000AF78600B46FB70FA
:10090000FB78002B08D07B681B889BB243F0010367
:100910009AB27B681A8007E07B681B889BB223F041
:1009200001039AB27B681A800C37BD465DF8047BE0
:10093000704700BF80B485B000AF78603960002395
:100940007B810023FB810023BB817B681B8C9BB2D6
:1009500023F001039AB27B681A847B681B8CFB81AD
:100960007B689B88BB817B681B8B7B817B8923F0A9
:1009700070037B817B8923F003037B813B681A88AA
:100980007B8913437B81FB8923F00203FB813B6856
:100990009A89FB891343FB813B685A88FB8913437F
:1009A000FB817A681E4B9A4203D07A681D4B9A42AB
:1009B00023D1FB8923F00803FB813B68DA89FB899B
:1009C0001343FB81FB8923F00403FB813B689A8876
:1009D000FB891343FB81BB8923F48073BB81BB89F3
:1009E00023F40073BB813B681A8ABB891343BB8124
:1009F0003B685A8ABB891343BB817B68BA899A805A
:100A00007B687A891A833B689A687B685A637B683B
:100A1000FA891A841437BD465DF8047B704700BF1D
:100A2000000001400004014080B485B000AF786050
:100A3000396000237B810023FB810023BB817B681D
:100A40001B8C9BB223F010039AB27B681A847B68DC
:100A50001B8CFB817B689B88BB817B681B8B7B81AC
:100A60007B8923F4E0437B817B8923F440737B8182
:100A70003B681B881B029AB27B8913437B81FB89ED
:100A800023F02003FB813B689B891B019AB2FB8901
:100A90001343FB813B685B881B019AB2FB891343BC
:100AA000FB817A68224B9A4203D07A68214B9A42A2
:100AB0002BD1FB8923F08003FB813B68DB891B0181
:100AC0009AB2FB891343FB81FB8923F04003FB812E
:100AD0003B689B881B019AB2FB891343FB81BB894E
:100AE00023F48063BB81BB8923F40063BB813B6833
:100AF0001B8A9B009AB2BB891343BB813B685B8A0C
:100B00009B009AB2BB891343BB817B68BA899A80E8
:100B10007B687A891A833B689A687B689A637B68EA
:100B2000FA891A841437BD465DF8047B704700BF0C
:100B3000000001400004014080B485B000AF78603F
:100B4000396000237B810023FB810023BB817B680C
:100B50001B8C9BB223F480739AB27B681A847B68E7
:100B60001B8CFB817B689B88BB817B689B8B7B811B
:100B70007B8923F070037B817B8923F003037B81D6
:100B80003B681A887B8913437B81FB8923F40073BC
:100B9000FB813B689B891B029AB2FB891343FB8153
:100BA0003B685B881B029AB2FB891343FB817A681E
:100BB000224B9A4203D07A68214B9A422BD1FB896F
:100BC00023F40063FB813B68DB891B029AB2FB893B
:100BD0001343FB81FB8923F48063FB813B689B8883
:100BE0001B029AB2FB891343FB81BB8923F4805318
:100BF000BB81BB8923F40053BB813B681B8A1B016B
:100C00009AB2BB891343BB813B685B8A1B019AB2D2
:100C1000BB891343BB817B68BA899A807B687A89D8
:100C20009A833B689A687B68DA637B68FA891A84DE
:100C30001437BD465DF8047B704700BF00000140DB
:100C40000004014080B485B000AF786013460A46C6
:100C50007A803B800023FB817B88012202FA03F328
:100C6000FB817B681B8C9AB2FB89DB439BB21340F0
:100C70009AB27B681A847B681B8C9AB239887B880D
:100C800001FA03F39BB213439AB27B681A841437B8
:100C9000BD465DF8047B704780B483B000AF7860D8
:100CA0000B46FB70FB78002B0CD07B68B3F844300C
:100CB0009BB26FEA43436FEA53439AB27B68A3F84F
:100CC000442009E07B68B3F844309BB2C3F30E03C1
:100CD0009AB27B68A3F844200C37BD465DF8047BCC
:040CE000704700BF9A
:100CE400007A030A0000000000000000010203046F
:040CF40006070809DE
:0400000508000000EF
:00000001FF
